:020000040000fa
:080000000002040000000000f2
:020000040000fa
:04000800840300006d
:020000040000fa
:04000c008403000069
:020000040000fa
:040010008403000065
:020000040000fa
:040014008403000061
:020000040000fa
:04001800840300005d
:020000040000fa
:04001c008403000059
:020000040000fa
:040020008403000055
:020000040000fa
:040024008403000051
:020000040000fa
:04002800840300004d
:020000040000fa
:04002c008403000049
:020000040000fa
:040030008403000045
:020000040000fa
:040034001e030000a7
:020000040000fa
:04003800840300003d
:020000040000fa
:04003c008403000039
:020000040000fa
:040040008403000035
:020000040000fa
:040044008403000031
:020000040000fa
:04004800520300005f
:020000040000fa
:04004c008403000029
:020000040000fa
:040050008403000025
:020000040000fa
:040054008403000021
:020000040000fa
:04005800840300001d
:020000040000fa
:04005c00fa020000a4
:020000040000fa
:040060008403000015
:020000040000fa
:040064008403000011
:020000040000fa
:04006800840300000d
:020000040000fa
:04006c008403000009
:020000040000fa
:040070008403000005
:020000040000fa
:040074008403000001
:020000040000fa
:0400780084030000fd
:020000040000fa
:04007c0084030000f9
:020000040000fa
:0400800084030000f5
:020000040000fa
:0400840084030000f1
:020000040000fa
:0400880084030000ed
:020000040000fa
:04008c0084030000e9
:020000040000fa
:0400900084030000e5
:020000040000fa
:040094005a0300000b
:020000040000fa
:0400980084030000dd
:020000040000fa
:04009c0084030000d9
:020000040000fa
:0400a00084030000d5
:020000040000fa
:0400a40084030000d1
:020000040000fa
:0400a80084030000cd
:020000040000fa
:0400ac0084030000c9
:020000040000fa
:0400b00084030000c5
:020000040000fa
:0400b40084030000c1
:020000040000fa
:0400b80084030000bd
:020000040000fa
:0400bc0084030000b9
:020000040000fa
:0400c00084030000b5
:020000040000fa
:0400c40084030000b1
:020000040000fa
:0400c80084030000ad
:020000040000fa
:0400cc0084030000a9
:020000040000fa
:0400d00084030000a5
:020000040000fa
:0400d40084030000a1
:020000040000fa
:0400d800840300009d
:020000040000fa
:0400dc008403000099
:020000040000fa
:0400e0008403000095
:020000040000fa
:0400e4008403000091
:020000040000fa
:0400e800840300008d
:020000040000fa
:0400ec008403000089
:020000040000fa
:0400f0008403000085
:020000040000fa
:0400f4008403000081
:020000040000fa
:0400f800840300007d
:020000040000fa
:0400fc008403000079
:020000040000fa
:040100008403000074
:020000040000fa
:040104008403000070
:020000040000fa
:04010800840300006c
:020000040000fa
:04010c008403000068
:020000040000fa
:040110008403000064
:020000040000fa
:040114008403000060
:020000040000fa
:04011800840300005c
:020000040000fa
:04011c008403000058
:020000040000fa
:040120008403000054
:020000040000fa
:040124008403000050
:020000040000fa
:04012800840300004c
:020000040000fa
:04012c008403000048
:020000040000fa
:040130008403000044
:020000040000fa
:040134008403000040
:020000040000fa
:04013800840300003c
:020000040000fa
:04013c008403000038
:020000040000fa
:040140008403000034
:020000040000fa
:040144008403000030
:020000040000fa
:04014800840300002c
:020000040000fa
:04014c008403000028
:020000040000fa
:040150008403000024
:020000040000fa
:040154008403000020
:020000040000fa
:04015800840300001c
:020000040000fa
:04015c008403000018
:020000040000fa
:040160008403000014
:020000040000fa
:040164008403000010
:020000040000fa
:04016800840300000c
:020000040000fa
:04016c008403000008
:020000040000fa
:040170008403000004
:020000040000fa
:040174008403000000
:020000040000fa
:0401780084030000fc
:020000040000fa
:04017c0084030000f8
:020000040000fa
:0401800084030000f4
:020000040000fa
:0401840084030000f0
:020000040000fa
:0401880084030000ec
:020000040000fa
:04018c0084030000e8
:020000040000fa
:0401900084030000e4
:020000040000fa
:0401940084030000e0
:020000040000fa
:0401980084030000dc
:020000040000fa
:04019c0084030000d8
:020000040000fa
:0401a00084030000d4
:020000040000fa
:0401a40084030000d0
:020000040000fa
:0401a80084030000cc
:020000040000fa
:0401ac0084030000c8
:020000040000fa
:0401b00084030000c4
:020000040000fa
:0401b40084030000c0
:020000040000fa
:0401b80084030000bc
:020000040000fa
:0401bc0084030000b8
:020000040000fa
:0401c00084030000b4
:020000040000fa
:0401c40084030000b0
:020000040000fa
:0401c80084030000ac
:020000040000fa
:0401cc0084030000a8
:020000040000fa
:0401d00084030000a4
:020000040000fa
:0401d40084030000a0
:020000040000fa
:0401d800840300009c
:020000040000fa
:0401dc008403000098
:020000040000fa
:0401e0008403000094
:020000040000fa
:0401e4008403000090
:020000040000fa
:0401e800840300008c
:020000040000fa
:0401ec008403000088
:020000040000fa
:0401f0008403000084
:020000040000fa
:0401f4008403000080
:020000040000fa
:0401f800840300007c
:020000040000fa
:0401fc008403000078
:020000040000fa
:040200008403000073
:020000040000fa
:04020400840300006f
:020000040000fa
:04020800840300006b
:020000040000fa
:04020c008403000067
:020000040000fa
:040210008403000063
:020000040000fa
:04021400840300005f
:020000040000fa
:04021800840300005b
:020000040000fa
:04021c008403000057
:020000040000fa
:040220008403000053
:020000040000fa
:04022400840300004f
:020000040000fa
:04022800840300004b
:020000040000fa
:04022c008403000047
:020000040000fa
:040230008403000043
:020000040000fa
:04023400840300003f
:020000040000fa
:04023800840300003b
:020000040000fa
:04023c008403000037
:020000040000fa
:040240008403000033
:020000040000fa
:04024400840300002f
:020000040000fa
:04024800840300002b
:020000040000fa
:04024c008403000027
:020000040000fa
:040250008403000023
:020000040000fa
:04025400840300001f
:020000040000fa
:04025800840300001b
:020000040000fa
:04025c008403000017
:020000040000fa
:040260008403000013
:020000040000fa
:04026400840300000f
:020000040000fa
:100400002f0421000eff2d000e01880000000000c7
:10041000000020000000e000020032000001200087
:100420002002880014000700b90007000000e00067
:1004300003003a00c024220001002000020037001f
:100440000000200001002000810f70000100320038
:100450000f000700000020000000e0000200320052
:100460000000020000000000d20b020000000000ab
:100470000040da000000fe00200020000000e00044
:1004800002003200100020009001880000000600e9
:10049000a1028800800478000000eb001f003700f4
:1004a000e284440054a0b4009905ba00e2844400f8
:1004b00054a0b4009906ba00e284440054a0b400e9
:1004c0000006eb00476fde00fd07b200ae018800ba
:1004d000636ce10003003a000ad801000000eb0061
:1004e0000e003700606ce10008003a00004deb00a0
:1004f0000a05e800020039003420ec000af0a000f0
:100500008b05e900f9ff3e00040037006168e10057
:10051000010032000086eb000b00070019c7ba008b
:100520000e04e0001905ba0003003a000a00e000da
:10053000dbff3a0000000600fe07b200ae028800b2
:100540008a047800f5ff37000cd0a300e20f4d00bd
:100550001c003b0089027800354dba000a05e8000e
:10056000020039003420ec000af0a0008b05e900fd
:100570000f003200254dba000a05e80002003900dc
:100580003420ec000af0a0008b05e90008003200de
:100590000c00e0000600320015cdba000a05e800a4
:1005a000020039003420ec000af0a0008b05e900bd
:1005b0008984e80054a0b4000b00e000e2ff3a0098
:1005c000000006009902ba00055d78008b05e9007d
:1005d000f7ff3200c82ade00055d78008b05e900d0
:1005e000f3ff32000c00e000f1ff320019ddba0029
:1005f000eeff3700801f78000000fa0001a8a90074
:1006000000188000c081880010188000d081880008
:1006100020188000e081880030188000f081880078
:10062000401880000082880010c0b3000df0b700b1
:100630000080fa004f007800004006003600f80005
:10064000809fbe00829fbe00849fbe00869fbe002a
:100650000000fa000068a900a07480000080ea0091
:100660004f00de00004078000080fb004f00dd00fe
:10067000a174800001f0a10001007000a074880046
:10068000200f07004a0d07000080fa004f03be004c
:100690004f02be004f01be004f00be003600f90001
:1006a000004006000000fa000108a9000080fa00de
:1006b000004006003600f800809fbe00829fbe000a
:1006c000849fbe00869fbe000000fa000368a90058
:1006d000308080004180800061004000e080480060
:1006e0003080880041808800010507000080fa0002
:1006f0004f03be004f02be004f01be004f00be00c0
:100700003600f900004006000040da000000fe005c
:100710000000050014002000aa033700f4ff2f009a
:10072000a80337000001be003c0007000470a700ca
:1007300003f0a1006509b100160032000d0035007c
:100740006828e10006003500f0ff2f00f1ff2700c8
:100750000300e00013003b0001002800000005003a
:1007600000004000818048008502e900fcff3a005b
:1007700008003700f88f420002003c008000eb00c8
:10078000000005008100d1000080d3008502e80050
:10079000fcff3a000300e00002003b006000100094
:1007a000e0801800000006000001be001b000700ea
:1007b0000470a70003f0a10003f8a30013003a009f
:1007c0006509b10010003200090035006928e10018
:1007d0000200350001002800000005000000400074
:1007e000818048008502e900fcff3a000000060015
:1007f000f88f4200050035008100d1000080d30051
:100800008502e800fcff3a00000006008000eb00d3
:10081000000005006011b80085033700c70ade003c
:10082000f107b200f50fb20008003200e1cf42003c
:10083000020032000170a00024000500810f70004a
:10084000010032000408050044000500810f70001b
:1008500002003a00140005008502e9000000400093
:1008600081c04800fcff3b000170a000240005008f
:1008700007f82700078361000638e10004003a000a
:10088000f7072000878361008703710001003a00a9
:1008900003f0a200889fbe008a9fbe008c9fbe000e
:1008a000470ade000480a100c71ade000580a1000f
:1008b000070028000785600087856100f70f20008a
:1008c0000720e1009e0032000728e1009c00320072
:1008d000010678000400e000b4003200f7072000b1
:1008e000878060000170a0000500e000c0003200b9
:1008f000f7072000878161000370a0000506520001
:100900000f003a000b50e1000b0032000308e10039
:1009100002003a000200e1007e00320002045000b2
:1009200083845800040031000001fd008101fd00b6
:100930008402fd008a05fd006044b80021003700f4
:100940000520e10005003d000001fd008101fd00e2
:100950008402fd008a05fd00050652007a60e10070
:10096000050035000170a1004722dd008480700081
:100970008a807000630037006044b800ef026600b0
:1009800007ff2f00070666000500e00006003400a0
:10099000f08312008714dd000511de00071bdd0067
:1009a000060171008519de007060e1000500350068
:1009b0000904780082047800030178008001eb00cc
:1009c000700656000b50e10003003a0002004000a0
:1009d000838048000400370060041400e0841c0099
:1009e00002005800838058000188a30006003200ee
:1009f0008100d1000080d3008984d3000884d30013
:100a00000402e800270037000178a30025003a001f
:100a10000100e000030032008186cf0069865600a5
:100a20000a0037008c0020000000e00004003a00bb
:100a300009007800880478000004eb00700252007e
:100a40008086cf000d0646000c06e9007060e100cc
:100a500006003500800078000900780088047800de
:100a60000004eb0070065600700252000c00e0001b
:100a70000c0034008c08dd00f00316000703de00d4
:100a8000868070000c00dd00074bde000600700061
:100a90008c4cdd000743de00868474000c44dd00ce
:100aa0000c0252006120e10020003500610160006d
:100ab0000700280087816400f7ff27008783640010
:100ac000070374000300e000060032008203730095
:100ad000040032000000e800e08048000188a30024
:100ae0000e003a00f70f20000720e1004a003d0009
:100af0000170a1004722dd00810072008a80700031
:100b00000000be004f06be004f05be004f04be00f1
:100b1000000006006000b800faff37008100d10035
:100b20000080d3000402e800eeff370004017800e3
:100b300089017400a10107008a807000f1ff37006d
:100b4000f7010700070278000001fd008101fd00a8
:100b5000f301070087027800850372000778a3007d
:100b6000040032000001fd008101fd0006020700c3
:100b7000e4ff3700850362000768a3000800320025
:100b80000b50e10003003200f0ff2f00f1ff2700bf
:100b9000dcff37000001fd008101fd00d9ff3700b7
:100ba0000468a300d7ff3200faff3700f8ff2700e0
:100bb000888360000b003a000000e00009003a0062
:100bc0008303640082837300020032000200be00cf
:100bd000ccff37000b50e100ceff3a000200be0010
:100be000c8ff370014002000810064003eff37007a
:100bf000f8ff27008883610004003a000200e0004b
:100c000002003a008c007800beff3700150020007b
:100c10008301640039ff370001f82700000020003d
:100c200081007500b7ff3700889fbe008a9fbe0015
:100c30008c9fbe001b0020000202be0005866800db
:100c400006002800060666004709de00f20fb20023
:100c5000820032000243e80080003200c729de0033
:100c6000f30fb2007d0032000343e8007b00320046
:100c7000f107b2000170a000f507b2000570a000f6
:100c8000c708dd004903de00868070004700dd00f4
:100c9000c72add004923de00868272004722dd007c
:100ca0000305510004035000858358000300310000
:100cb00000004000818048000a05e9008c1f780090
:100cc0008a9fbe0004005000858058000402420044
:100cd00085824a0000004000818048000005eb004a
:100ce0000004be006033b8000406be000d48e100f9
:100cf00056003100110009004dccd8000c01b8009d
:100d00000d02b8008481410060824a008283530052
:100d100003045c0084845c0060055d000a00e00060
:100d200025003a00800578000d40e10049003100bf
:100d30008800780007007800110009004d88d8006d
:100d40000c01b8000d02b8008481410060824a00a5
:100d50006003110083835b0004045c00e0845c009a
:100d60000900e00021003a004f01be000300e0004e
:100d70002b003200e3016000070673008c817100d4
:100d800001003200640070004200de004e5edd00b3
:100d90000c007000c258de0001e0a00083010700d3
:100da000cf017800818071004f06be004f05be0064
:100db0004f04be00000006008c8343000d044c006d
:100dc000e0844c0060054d000000e9000a00e000ee
:100dd000d4ff32008c8343000d044c00e0844c00af
:100de00060054d000000e900ceff37000c03430012
:100df0008d834b0060044c00e0844c000000e9004f
:100e00000900e000d8ff32000c0343008d834b0043
:100e100060044c00e0844c000000e900d2ff370081
:100e20004200de004e5edd000c007000c258de00a5
:100e300001e0a000cf0178000300e000daff3200fb
:100e400060001000e0801800d7ff3700f0ff2f008f
:100e5000aaff3700f0ff2f00b9ff37000404be00df
:100e60002f010700870678000004fd008104fd00c3
:100e70002b010700078366000678a30003003200f9
:100e80000960a7000800be002c0037000d78a30001
:100e9000020032000800be00280037000778a300d7
:100ea00026003a0001f0a10009f0a1000668a300a5
:100eb00003003200f1ff2700f0ff2f00baff3700d8
:100ec0000d68a300030032000800be008c80700093
:100ed000b5ff37000768a30007003a000648a300e3
:100ee00003003200f1ff2700f0ff2f00aeff3700b4
:100ef0000d48a300030032006000b8008c80700031
:100f0000a9ff37000748a3000400320001f82700ba
:100f1000000020008c807000a3ff370076010700de
:100f20000004fd008104fd00020578007201070045
:100f30000802be008a01780059ff37000160a00056
:100f4000120220008280880097ff37000100e00035
:100f5000120032000500e00010003200889fbe0041
:100f60008a9fbe008c9fbe000006eb0001f8a30024
:100f70000300320060001000e08018000cf0a000b8
:100f800005f8a3000300320060021200e0821a009c
:100f90000cf0a2008005eb0041ff37006000b800b4
:100fa00002000500038368000700280007036300b0
:100fb000470ade000480a100c71ade000580a100f8
:100fc000f70f20000720e100420032000728e1006f
:100fd00040003200889fbe008a9fbe008c1f7800b0
:100fe000f107b200f307b2000400e0006400320031
:100ff0000170a0000500e000680032000370a0004e
:1010000085054200eb07b1000204b8000302b800f6
:101010008484440060854a00020ab8008484440045
:101020000a854a00030ab80004054500040033009d
:101030000804d0008984d2000a85d2008b05e9001b
:101040006158e1003d0035000210200009016100f7
:101050000308200089816100f7072000878364006e
:1010600008867300c84cde00c853dd008784740016
:101070004855de000300e0000600320082037600df
:10108000040032008904e80060054d000a88a300ce
:101090000c003a00f70f20000758e10044003d0023
:1010a0000a70a100c75ddd000a8575008a00730023
:1010b000090078004f0678004f05be004f04be00bf
:1010c000000006000a05d1008984d3008b05e800e2
:1010d000f0ff3700881f78000604780090000700b2
:1010e000070278000001fd008101fd008c0007006f
:1010f00087027800850372000778a300050032009c
:101100000001fd008101fd009f0007004f047800f1
:1011100000000600850372000748a30003003200a8
:10112000f0ff2f00f1ff2700f8ff3700000020003c
:1011300001f8270088807000f4ff370088017800ec
:101140004848dd00808171004848de00c850dd005d
:1011500001007000c850de00060478000b01780022
:101160001600070088807000d2ff37000500e000fd
:1011700005003200170020003a0007009dff3700ed
:1011800081037000f9ff3a00860078004f0678006e
:101190004f05be004f04be00000005008303710030
:1011a000f9ff3200270020002e00070094ff3700cf
:1011b00001f8270086807000f4ff37000100e0008e
:1011c00026003200610111007810e10023003c008c
:1011d0006022b8007010e100040035008002780041
:1011e000010078008000eb00700151000200e00077
:1011f0000900340070031100062add00822ade0097
:101200008603dd00878272000200de00860bdd00af
:10121000070070008208de0084817100f4ff27005f
:1012200004826200848171000400280084826200cc
:101230006102600005f0a600000006000482710053
:10124000070032000000e800e080480000000600cf
:101250000002be006000b800efff37006000b80079
:1012600000000600889fbe000004eb006138e1002a
:1012700016003a000100e00008003a00c800de0055
:101280004800dd00880020000100e00003003a0073
:10129000c800de004800dd00680444008184cf00ff
:1012a000e9845400060034008908dd00f08314004e
:1012b0008703de00878070000900dd000904440018
:1012c000610214004f04be00000006000300e000ad
:1012d00008003a00c811de004811dd008800200037
:1012e0000300e00003003a00c811de004811dd00f1
:1012f000680444008384cf00e9845400060034006d
:101300008919dd00f08314008713de0087817100e6
:101310000911dd0009044400e1021400e9ff37006f
:101320002700200001f0a70017002000470bde0077
:10133000f60fb200040032000643e8000a00320053
:101340004702b3000000060001037800f607b20070
:101350000603700002003a000703b3000000060015
:101360008702b3000000060001037800f607b20010
:1013700006037000020032000770a00000000600a3
:101380000760a000000006000478a30004003200fb
:101390000578a300030032000168a30001003a00b1
:1013a0000200be000160a000000006008101700084
:1013b000270032008002eb0001f8a3000300320096
:1013c00060001000e080180015002000f4072000e5
:1013d0000202420020003400f7032000870360006f
:1013e00006042000000363000208200000016100e1
:1013f0004700de00c909dd0000807100c708de007b
:101400000600e00008003200870371000600320089
:101410001000b0000180b0000188a300020032007b
:10142000c108de000402e800f107b200f30f20005b
:101430000320e10003003d004722dd00810072002f
:101440002900370001f827000000eb0026003700d4
:101450006000b80000000600680212007f20e10072
:10146000020034006000b8001f0037006011b800af
:101470007020e10004003500800178000100780050
:101480008000eb00700252000400e000090034000c
:10149000f00312000719dd008419de000703dd00e8
:1014a000868171000400de00070bdd00060070007d
:1014b0008408de00f7ff2700838363008703710041
:1014c0000600280003036300070032000700e00065
:1014d00003003a00610160000281730002003200e3
:1014e0001000b0000180b0000500a600000006005a
:1014f00001f0a000000006004f0ade004709de00f0
:10150000f107b200f20fb2000b003200f207b10097
:101510000170a000c708dd00c901de0083807000f3
:101520004700dd000400a600000006006000100077
:10153000e080180000000600810f700001003a00f2
:10154000000006008182cf000500e00010003e0090
:101550008082cf00ee8242007028e1000400390052
:1015600007003e00800078000000eb000e0037000e
:10157000708312008600de000500dd000a003700df
:10158000708352008600dd000000eb00060037008b
:10159000e28252008508dd00708312000603de003f
:1015a000868070000500dd007507b0000501ea00c7
:1015b0000400a6000000060060001000e080180093
:1015c00000000600889fbe008a9fbe00841f78002e
:1015d0006c0007004f00780011003300f0ff2f006f
:1015e000838f6c0006003b00040565000a00a7001d
:1015f0000800370009f0a60010002000080037009e
:10160000820f5400838f5c0003003900100020001b
:1016100001003e000000200009f0a7000000ea00e1
:101620004f05be004f04be000000e00000000600b1
:10163000889fbe008a9fbe00008270000402710075
:1016400004827100260032000004be000200be00c9
:101650006011b8006b092000950220000182cf00c4
:101660000a0039000541b1000082cf0007003900af
:101670000541b1000982cf00040039000541b100e5
:101680000882cf00010039000541b1000542520037
:10169000120032000a003b00828171006101640087
:1016a0008100d1000080d3008984d3000884d30056
:1016b0008b05e8000442e800f7ff3a000700370016
:1016c0000804440089844c000000480081804800e0
:1016d0008b05e9000442e900f9ff3a000300070026
:1016e0004f05be004f04be00000006008100200030
:1016f000618055000b003d000b00200061fe2f00b3
:101700000100e1001d00340082817100610164006c
:101710008904d1000884d3000000e800faff3a00f1
:10172000710020006100640003007000020060008e
:101730000900320061044400e0844c000988a500df
:10174000050032008b05e8006808e10002003a005d
:101750008904d1000884d300f20f20000258e10070
:1017600005003d00c75ddd00f907b2008980750006
:1017700008007800000006000bf827008b007800b6
:10178000000005000004be0024fc07000003be00aa
:101790000405be000200be0020fc0700844f750057
:0417a000000006003f
:020000040000fa
:1017a4000600fa00881f7800500a0700120b070091
:1017b4005b08070065080700e10a0700960a0700ae
:1017c400ef08070084cea90084aea900848ea90086
:1017d400856ea900754ea900040ea900052ea90066
:1017e40095eea900054ea900746ea900010037000a
:1017f40000000000ca0a0700e14f5000fcff3a0055
:10180400cb0a0700c20a0700000f78001e00780008
:10181400100078008000eb00fdfb0700323323004a
:1018240033052400defd07000200200003582400d5
:10183400fcfc070010079800210798001e01900087
:10184400ae0190000000200081202400f5fc070078
:1018540002002000030a240004fc0700a081880081
:10186400b18188001e80e800100078008000eb0041
:10187400e7fb07003233230033052400c8fd0700cb
:101884000200200003582400e6fc0700100798001b
:10189400210798001e019000ae0190000000200076
:1018a40081202400dffc070002002000030a24003a
:1018b400eefb070040818800518188009e0078007b
:1018c40064804000100078008000eb00d0fb07002b
:1018d4003233230033052400b1fd07000200200049
:1018e40003582400cffc0700100798002107980034
:1018f4001e019000ae019000000020008120240011
:10190400c8fc070002002000030a2400d7fb0700dc
:1019140060818800718188009e00780066804000a4
:10192400100078008000eb00b9fb0700323323007d
:10193400330524009afd0700020020000358240008
:10194400b8fc070010079800210798001e019000ba
:10195400ae0190000000200081202400b1fc0700ab
:1019640002002000030a2400c0fb07002081880035
:10197400318188009e007800688040001000780063
:101984008000eb00a2fb0700323323003305240060
:1019940083fd07000200200003582400a1fc070077
:1019a40010079800210798001e019000ae019000d6
:1019b40000002000812024009afc0700020020007f
:1019c400030a2400a9fb0700808188009181880014
:1019d400a0818000b181800018c0b3000200200003
:1019e400c32024004afb07000000e000010034008b
:1019f4000044eb000804e0000200320084cea8009a
:101a04000100370084cea90040818000518180000c
:101a140018c0b30002002000c32024003cfb0700d0
:101a24000000e000010034000044eb000804e00082
:101a34000200320084aea8000100370084aea90081
:101a4400608180007181800018c0b3000200200012
:101a5400c32024002efb07000000e0000100340036
:101a64000044eb000804e00002003200848ea80069
:101a740001003700848ea90020818000318180001c
:101a840018c0b30002002000c320240020fb07007c
:101a94000000e000010034000044eb000804e00012
:101aa40002003200856ea80001003700856ea9008f
:101ab400808180009181800018c0b3000200200062
:101ac400c320240012fb07000000e00001003400e2
:101ad4000044eb000804e00002003200754ea80048
:101ae40044ff3700754ea90042ff37000000fa009a
:101af4000ed0bf000080fb00cf80de00320120004a
:101b040003002000820f5000838f580082003e00a3
:101b140000060100130037001c00370025003700c1
:101b24002f00370030003700390037003a00370003
:101b340043003700440037004e0037004f003700a1
:101b44005900370074003700730037007200370003
:101b54007100370056003700620037005f0037001d
:101b64006b0037000630ef000830ef000041eb0057
:101b74006000b8000c0a070012c0b3006000b8008f
:101b8400090a070010c0b3000ef0b70032808000cd
:101b940043808000803e200001002000800f51001f
:101ba400818f59005f00360020c0b3000ef0b700eb
:101bb4005d0037000041eb0000002000811c240080
:101bc400f909070012c0b30000002000811c2400a2
:101bd400f509070030c0b3000ef0b700520037001b
:101be40053000700500037000041eb0000002000c4
:101bf400811c2400ec09070012c0b3006000b80087
:101c0400e909070050c0b3000ef0b70046003700e2
:101c140047000700440037000041eb006000b800b3
:101c2400e109070012c0b30000002000811c240059
:101c3400dd09070070c0b3000ef0b7003a003700aa
:101c44003b000700380037000041eb000000200093
:101c540001172400d409070012c0b30000002000bb
:101c640001172c00d009070090c0b3000ef0b70094
:101c74002d0037002e0007002b0037000041eb0039
:101c84000000200001172c00c709070012c0b30090
:101c94000000200001172400c3090700b0c0b300ee
:101ca4000ef0b70020003700210007001e003700a7
:101cb4000041eb0000002000010a2400ba090700db
:101cc40012c0b30000002000811c2400b6090700e4
:101cd40020c1b3000ef0b700130037001400070052
:101ce400110037000041eb0000002000811c24009b
:101cf400ad09070012c0b30000002000010a24004f
:101d0400a909070030c1b3000ef0b7000600370080
:101d140007000700040037000e70ef000000000009
:101d240001003700000000000080fa0000000600f7
:101d34000200fa00881f78000040eb00004f780092
:101d4400808180009181800018c0b30002002000cf
:101d5400831c24006efa07000000e0000100350037
:101d64000044eb000804e0002c00320020818000d5
:101d74003181800018c0b30002002000c320240079
:101d840063fa07000000e000010035000044eb00a6
:101d94000804e0002100320060818000718180002d
:101da40018c0b30002002000c32024005afa070020
:101db4000000e00001003c000044eb000804e000e7
:101dc40016003200408180005181800018c0b300a9
:101dd40002002000c32024004ffa07000000e000a6
:101de40001003c000044eb000804e0000b0032005a
:101df400a0818000b181800018c0b30002002000df
:101e0400831c240044fa07000000e00001003c00a9
:101e14000044eb000804e000b8013a00808180002f
:101e24009181800018c0b30002002000831c2400ac
:101e340037fa07000000e000010035000044eb0021
:101e44000804e0002c0032002081800031818000f1
:101e540018c0b30002002000c32024002cfa07009d
:101e64000000e000010035000044eb000804e0003d
:101e740021003200608180007181800018c0b300ad
:101e840002002000c320240021fa07000000e00023
:101e9400010035000044eb000804e00016003200a5
:101ea400408180005181800018c0b30002002000ee
:101eb400c320240018fa07000000e00001003c00e1
:101ec4000044eb000804e0000b003200a081800015
:101ed400b181800018c0b30002002000831c2400dc
:101ee4000dfa07000000e00001003c000044eb0094
:101ef4000804e00081013a00808180009181800023
:101f040018c0b30002002000831c240002fa07005a
:101f14000000e00001003c000044eb000804e00085
:101f24002c003200208180003181800018c0b30071
:101f340002002000c3202400f5f907000000e0009f
:101f4400010035000044eb000804e00021003200e9
:101f5400608180007181800018c0b30002002000fd
:101f6400c3202400ecf907000000e00001003c005d
:101f74000044eb000804e0001600320040818000b9
:101f84005181800018c0b30002002000c320240047
:101f9400e1f907000000e00001003c000044eb0010
:101fa4000804e0000b003200a0818000b1818000b1
:101fb40018c0b30002002000831c2400d6f90700d7
:101fc4000000e00001003c000044eb000804e000d5
:101fd4004a013a00808180009181800018c0b300da
:101fe40002002000831c2400c9f907000000e0005f
:101ff400010035000044eb000804e0002c0032002e
:10200400208180003181800018c0b30002002000cc
:10201400c3202400c0f907000000e00001003c00d8
:102024000044eb000804e0002100320060818000dd
:102034007181800018c0b30002002000c320240076
:10204400b3f907000000e000010035000044eb0094
:102054000804e000160032004081800051818000b5
:1020640018c0b30002002000c3202400aaf907000e
:102074000000e00001003c000044eb000804e00024
:102084000b003200a0818000b181800018c0b30031
:1020940002002000831c24009ff907000000e000d8
:1020a40001003c000044eb000804e00013013a0086
:1020b400808180009181800018c0b300020020005c
:1020c400831c240094f907000000e00001003c0098
:1020d4000044eb000804e0002c0032002081800062
:1020e4003181800018c0b30002002000c320240006
:1020f40087f907000000e000010035000044eb0010
:102104000804e000210032006081800071818000b9
:1021140018c0b30002002000c32024007cf907008b
:102124000000e000010035000044eb000804e0007a
:1021340016003200408180005181800018c0b30035
:1021440002002000c320240073f907000000e0000f
:1021540001003c000044eb000804e0000b003200e6
:10216400a0818000b181800018c0b300020020006b
:10217400831c240068f907000000e00001003c0013
:102184000044eb000804e000dc003a008081800099
:102194009181800018c0b30002002000831c240039
:1021a4005bf907000000e000010035000044eb008b
:1021b4000804e0002c00320020818000318180007e
:1021c40018c0b30002002000c320240052f9070005
:1021d4000000e00001003c000044eb000804e000c3
:1021e40021003200608180007181800018c0b3003a
:1021f40002002000c320240047f907000000e0008b
:1022040001003c000044eb000804e000160032002a
:10221400408180005181800018c0b300020020007a
:10222400c32024003af907000000e0000100350053
:102234000044eb000804e0000b003200a0818000a1
:10224400b181800018c0b30002002000831c240068
:1022540031f907000000e00001003c000044eb00fd
:102264000804e000a5003a0080818000918180008c
:1022740018c0b30002002000831c240026f90700c4
:102284000000e00001003c000044eb000804e00012
:102294002c003200208180003181800018c0b300fe
:1022a40002002000c320240019f907000000e00008
:1022b400010035000044eb000804e0002100320076
:1022c400608180007181800018c0b300020020008a
:1022d400c320240010f907000000e00001003c00c6
:1022e4000044eb000804e000160032004081800046
:1022f4005181800018c0b30002002000c3202400d4
:1023040003f907000000e000010035000044eb0081
:102314000804e0000b003200a0818000b18180003d
:1023240018c0b30002002000831c2400faf8070040
:102334000000e00001003c000044eb000804e00061
:102344006e003a00808180009181800018c0b30043
:1023540002002000831c2400edf807000000e000c8
:10236400010035000044eb000804e0002c003200ba
:10237400208180003181800018c0b3000200200059
:10238400c3202400e2f807000000e000010035004b
:102394000044eb000804e00021003200608180006a
:1023a4007181800018c0b30002002000c320240003
:1023b400d9f807000000e00001003c000044eb00f5
:1023c4000804e00016003200408180005181800042
:1023d40018c0b30002002000c3202400ccf807007a
:1023e4000000e000010035000044eb000804e000b8
:1023f4000b003200a0818000b181800018c0b300be
:1024040002002000831c2400c3f807000000e00041
:1024140001003c000044eb000804e00037003a00ef
:10242400808180009181800018c0b30002002000e8
:10243400831c2400b6f807000000e000010035000a
:102444000044eb000804e0002f00320020818000eb
:102454003181800018c0b30002002000c320240092
:10246400adf807000000e00001003c000044eb0070
:102474000804e00024003200608180007181800043
:1024840018c0b30002002000c3202400a0f80700f5
:102494000000e000010035000044eb000804e00007
:1024a40019003200408180005181800018c0b300bf
:1024b40002002000c320240095f807000000e0007b
:1024c400010035000044eb000804e0000e00320077
:1024d400a0818000b181800018c0b30002002000f8
:1024e400831c24008cf807000000e00001003c007d
:1024f4000044eb000804e0000300320020c0b300f5
:10250400004f78005d043700808180009181800055
:1025140018c0b30002002000831c24007ef80700ca
:102524000000e00001003c000044eb000804e0006f
:102534002c003200208180003181800018c0b3005b
:1025440002002000c320240073f807000000e0000c
:1025540001003c000044eb000804e00021003200cc
:10256400608180007181800018c0b30002002000e7
:10257400c320240068f807000000e00001003c00cc
:102584000044eb000804e0001600320040818000a3
:102594005181800018c0b30002002000c320240031
:1025a4005bf807000000e000010035000044eb0088
:1025b4000804e0000b003200a0818000b18180009b
:1025c40018c0b30002002000831c240052f8070046
:1025d4000000e00001003c000044eb000804e000bf
:1025e40081013a00808180009181800018c0b3008d
:1025f40002002000831c240047f807000000e000cc
:1026040001003c000044eb000804e0002c00320010
:10261400208180003181800018c0b30002002000b6
:10262400c32024003cf807000000e00001003c0047
:102634000044eb000804e0002100320060818000c7
:102644007181800018c0b30002002000c320240060
:1026540031f807000000e00001003c000044eb00fa
:102664000804e0001600320040818000518180009f
:1026740018c0b30002002000c320240024f807007f
:102684000000e000010035000044eb000804e00015
:102694000b003200a0818000b181800018c0b3001b
:1026a40002002000831c240019f807000000e00049
:1026b400010035000044eb000804e0004a013a0040
:1026c400808180009181800018c0b3000200200046
:1026d400831c240010f807000000e00001003c0007
:1026e4000044eb000804e0002c003200208180004c
:1026f4003181800018c0b30002002000c3202400f0
:1027040005f807000000e00001003c000044eb0075
:102714000804e000210032006081800071818000a3
:1027240018c0b30002002000c3202400f8f70700fb
:102734000000e000010035000044eb000804e00064
:1027440016003200408180005181800018c0b3001f
:1027540002002000c3202400edf707000000e00081
:10276400010035000044eb000804e0000b003200d7
:10277400a0818000b181800018c0b3000200200055
:10278400831c2400e2f707000000e000010035008c
:102794000044eb000804e00013013a00808180004b
:1027a4009181800018c0b30002002000831c240023
:1027b400d9f707000000e00001003c000044eb00f2
:1027c4000804e0002c003200208180003181800068
:1027d40018c0b30002002000c3202400cef7070075
:1027e4000000e00001003c000044eb000804e000ad
:1027f40021003200608180007181800018c0b30024
:1028040002002000c3202400c1f707000000e000fc
:10281400010035000044eb000804e000160032001b
:10282400408180005181800018c0b3000200200064
:10283400c3202400b6f707000000e00001003500c3
:102844000044eb000804e0000b003200a08180008b
:10285400b181800018c0b30002002000831c240052
:10286400adf707000000e00001003c000044eb006d
:102874000804e000dc003a0080818000918180003f
:1028840018c0b30002002000831c2400a2f7070034
:102894000000e00001003c000044eb000804e000fc
:1028a4002c003200208180003181800018c0b300e8
:1028b40002002000c320240095f707000000e00078
:1028c400010035000044eb000804e0002100320060
:1028d400608180007181800018c0b3000200200074
:1028e400c32024008cf707000000e00001003c0036
:1028f4000044eb000804e000160032004081800030
:102904005181800018c0b30002002000c3202400bd
:1029140081f707000000e00001003c000044eb00e8
:102924000804e0000b003200a0818000b181800027
:1029340018c0b30002002000831c240074f70700b1
:102944000000e000010035000044eb000804e00052
:10295400a5003a00808180009181800018c0b300f6
:1029640002002000831c24006bf707000000e00035
:1029740001003c000044eb000804e0002c0032009d
:10298400208180003181800018c0b3000200200043
:10299400c320240060f707000000e00001003c00b1
:1029a4000044eb000804e000210032006081800054
:1029b4007181800018c0b30002002000c3202400ed
:1029c40053f707000000e000010035000044eb006d
:1029d4000804e0001600320040818000518180002c
:1029e40018c0b30002002000c32024004af70700e7
:1029f4000000e00001003c000044eb000804e0009b
:102a04000b003200a0818000b181800018c0b300a7
:102a140002002000831c24003df707000000e000b2
:102a2400010035000044eb000804e0006e003a00a9
:102a3400808180009181800018c0b30002002000d2
:102a4400831c240034f707000000e00001003c0070
:102a54000044eb000804e0002c00320020818000d8
:102a64003181800018c0b30002002000c32024007c
:102a740027f707000000e000010035000044eb00e8
:102a84000804e00021003200608180007181800030
:102a940018c0b30002002000c32024001cf7070064
:102aa4000000e000010035000044eb000804e000f1
:102ab40016003200408180005181800018c0b300ac
:102ac40002002000c320240013f707000000e000e8
:102ad40001003c000044eb000804e0000b0032005d
:102ae400a0818000b181800018c0b30002002000e2
:102af400831c240006f707000000e00001003500f5
:102b04000044eb000804e00037003a0080818000b4
:102b14009181800018c0b30002002000831c2400af
:102b2400fdf607000000e00001003c000044eb005b
:102b34000804e0002f0032002081800031818000f1
:102b440018c0b30002002000c3202400f0f60700e0
:102b54000000e000010035000044eb000804e00040
:102b640024003200608180007181800018c0b300ad
:102b740002002000c3202400e7f607000000e00064
:102b840001003c000044eb000804e000190032009e
:102b9400408180005181800018c0b30002002000f1
:102ba400c3202400daf607000000e000010035002d
:102bb4000044eb000804e0000e003200a081800015
:102bc400b181800018c0b30002002000831c2400df
:102bd400cff607000000e000010035000044eb00e0
:102be4000804e0000300320010c0b300004f780076
:102bf400a2023700808180009181800018c0b30058
:102c040002002000831c2400c1f607000000e0003d
:102c1400010035000044eb000804e0002c00320001
:102c2400208180003181800018c0b30002002000a0
:102c3400c3202400b6f607000000e00001003500c0
:102c44000044eb000804e0002100320060818000b1
:102c54007181800018c0b30002002000c32024004a
:102c6400abf607000000e000010035000044eb0073
:102c74000804e00016003200408180005181800089
:102c840018c0b30002002000c3202400a0f60700ef
:102c94000000e000010035000044eb000804e000ff
:102ca4000b003200a0818000b181800018c0b30005
:102cb40002002000831c240095f607000000e000b9
:102cc400010035000044eb000804e00013013a0061
:102cd400808180009181800018c0b3000200200030
:102ce400831c24008af607000000e0000100350080
:102cf4000044eb000804e0002c0032002081800036
:102d04003181800018c0b30002002000c3202400d9
:102d140081f607000000e00001003c000044eb00e5
:102d24000804e0002100320060818000718180008d
:102d340018c0b30002002000c320240074f607006a
:102d44000000e000010035000044eb000804e0004e
:102d540016003200408180005181800018c0b30009
:102d640002002000c320240069f607000000e000f0
:102d7400010035000044eb000804e0000b003200c1
:102d8400a0818000b181800018c0b300020020003f
:102d9400831c24005ef607000000e00001003500fb
:102da4000044eb000804e000dc003a00808180006d
:102db4009181800018c0b30002002000831c24000d
:102dc40053f607000000e000010035000044eb006a
:102dd4000804e0002c003200208180003181800052
:102de40018c0b30002002000c32024004af60700e4
:102df4000000e00001003c000044eb000804e00097
:102e040021003200608180007181800018c0b3000d
:102e140002002000c32024003df607000000e0006b
:102e2400010035000044eb000804e0001600320005
:102e3400408180005181800018c0b300020020004e
:102e4400c320240034f607000000e00001003c0029
:102e54000044eb000804e0000b003200a081800075
:102e6400b181800018c0b30002002000831c24003c
:102e740027f607000000e000010035000044eb00e5
:102e84000804e000a5003a00808180009181800060
:102e940018c0b30002002000831c24001ef60700a3
:102ea4000000e00001003c000044eb000804e000e6
:102eb4002c003200208180003181800018c0b300d2
:102ec40002002000c320240011f607000000e000e7
:102ed400010035000044eb000804e000210032004a
:102ee400608180007181800018c0b300020020005e
:102ef400c320240006f607000000e00001003500ae
:102f04000044eb000804e000160032004081800019
:102f14005181800018c0b30002002000c3202400a7
:102f2400fbf507000000e000010035000044eb0061
:102f34000804e0000b003200a0818000b181800011
:102f440018c0b30002002000831c2400f2f507001f
:102f54000000e00001003c000044eb000804e00035
:102f64006e003a00808180009181800018c0b30017
:102f740002002000831c2400e7f507000000e000a5
:102f840001003c000044eb000804e0002c00320087
:102f9400208180003181800018c0b300020020002d
:102fa400c3202400dcf507000000e00001003c0021
:102fb4000044eb000804e00021003200608180003e
:102fc4007181800018c0b30002002000c3202400d7
:102fd400cff507000000e000010035000044eb00dd
:102fe4000804e00016003200408180005181800016
:102ff40018c0b30002002000c3202400c6f5070057
:103004000000e00001003c000044eb000804e00084
:103014000b003200a0818000b181800018c0b30091
:1030240002002000831c2400bbf507000000e00020
:1030340001003c000044eb000804e00037003a00c3
:10304400808180009181800018c0b30002002000bc
:10305400831c2400aef507000000e00001003500e9
:103064000044eb000804e0002f00320020818000bf
:103074003181800018c0b30002002000c320240066
:10308400a3f507000000e000010035000044eb0058
:103094000804e00024003200608180007181800017
:1030a40018c0b30002002000c320240098f50700d4
:1030b4000000e000010035000044eb000804e000db
:1030c40019003200408180005181800018c0b30093
:1030d40002002000c32024008df507000000e0005a
:1030e400010035000044eb000804e0000e0032004b
:1030f400a0818000b181800018c0b30002002000cc
:10310400831c240084f507000000e00001003c005b
:103114000044eb000804e0000300320030c0b300b8
:10312400004f780055013700808180009181800034
:1031340018c0b30002002000831c240074f50700ab
:103144000000e000010035000044eb000804e0004a
:103154002c003200208180003181800018c0b3002f
:1031640002002000c320240069f507000000e000ed
:10317400010035000044eb000804e00021003200a7
:10318400608180007181800018c0b30002002000bb
:10319400c32024005ef507000000e00001003500b4
:1031a4000044eb000804e000160032004081800077
:1031b4005181800018c0b30002002000c320240005
:1031c40055f507000000e00001003c000044eb005e
:1031d4000804e0000b003200a0818000b18180006f
:1031e40018c0b30002002000831c240048f5070027
:1031f4000000e000010035000044eb000804e0009a
:1032040037003a00808180009181800018c0b300ab
:1032140002002000831c24003ff507000000e000aa
:1032240001003c000044eb000804e0002f003200e1
:10323400208180003181800018c0b300020020008a
:10324400c320240032f507000000e000010035002f
:103254000044eb000804e000240032006081800098
:103264007181800018c0b30002002000c320240034
:1032740027f507000000e000010035000044eb00e2
:103284000804e00019003200408180005181800070
:1032940018c0b30002002000c32024001cf507005e
:1032a4000000e000010035000044eb000804e000e9
:1032b4000e003200a0818000b181800018c0b300ec
:1032c40002002000831c240011f507000000e00028
:1032d400010035000044eb000804e0000300320064
:1032e40060c0b300004f7800e400370080818000a4
:1032f4009181800018c0b30002002000831c2400c8
:1033040005f507000000e00001003c000044eb006c
:103314000804e0002c00320020818000318180000c
:1033240018c0b30002002000c3202400faf40700f0
:103334000000e00001003c000044eb000804e00051
:1033440021003200608180007181800018c0b300c8
:1033540002002000c3202400eff407000000e00076
:1033640001003c000044eb000804e00016003200b9
:10337400408180005181800018c0b3000200200009
:10338400c3202400e4f407000000e00001003c0036
:103394000044eb000804e0000b003200a081800030
:1033a400b181800018c0b30002002000831c2400f7
:1033b400d9f407000000e00001003c000044eb00e9
:1033c4000804e00037003a00808180009181800089
:1033d40018c0b30002002000831c2400ccf40700b2
:1033e4000000e000010035000044eb000804e000a8
:1033f4002f003200208180003181800018c0b3008a
:1034040002002000c3202400c3f407000000e000f1
:1034140001003c000044eb000804e00024003200fa
:10342400608180007181800018c0b3000200200018
:10343400c3202400b8f407000000e00001003c00b1
:103444000044eb000804e0001900320040818000d1
:103454005181800018c0b30002002000c320240062
:10346400adf407000000e00001003c000044eb0064
:103474000804e0000e003200a0818000b1818000c9
:1034840018c0b30002002000831c2400a0f407002d
:103494000000e000010035000044eb000804e000f7
:1034a400030032000040eb00004f78007300370047
:1034b400808180009181800018c0b3000200200048
:1034c400831c240092f407000000e0000100350092
:1034d4000044eb000804e0002f003200208180004b
:1034e4003181800018c0b30002002000c3202400f2
:1034f40089f407000000e00001003c000044eb00f8
:103504000804e000240032006081800071818000a2
:1035140018c0b30002002000c32024007ef407007a
:103524000000e00001003c000044eb000804e0005f
:1035340019003200408180005181800018c0b3001e
:1035440002002000c320240073f407000000e00000
:1035540001003c000044eb000804e0000e003200cf
:10356400a0818000b181800018c0b3000200200057
:10357400831c240068f407000000e00001003c0004
:103584000044eb000804e0000300320050c0b30024
:10359400004f7800390037008081800091818000dd
:1035a40018c0b30002002000831c24005af4070052
:1035b4000000e00001003c000044eb000804e000cf
:1035c4002e003200208180003181800018c0b300b9
:1035d40002002000c32024004ff407000000e00094
:1035e40001003c000044eb000804e000230032002a
:1035f400608180007181800018c0b3000200200047
:10360400c320240044f407000000e00001003c0053
:103614000044eb000804e000180032004081800000
:103624005181800018c0b30002002000c320240090
:1036340039f407000000e00001003c000044eb0006
:103644000804e0000d003200a0818000b1818000f8
:1036540018c0b30002002000831c24002cf40700cf
:103664000000e000010035000044eb000804e00025
:103674000200320040c0b300004f78001e407800c2
:103684000004e00003003a0020c0b3000ff0b700cc
:10369400230037001e407800e24f500003003a0038
:1036a40040c0b3000ff0b7001d0037001e40780083
:1036b400e14f500003003a0060c0b3000ff0b700c0
:1036c400170037001e407800e64f500003003a0010
:1036d40080c0b3000ff0b700110037001e4078001f
:1036e400e34f500003003a00a0c0b3000ff0b7004e
:1036f4000b0037001e407800e54f500003003a00ed
:1037040010c1b3000ff0b700050037001e40780069
:10371400e44f500002003a0000c1b3000ff0b700bc
:103724000fd0bf008080fb000ed0bf000080fb00e4
:103734000000e900808f5000020032000fd0bf006b
:103744000ef0b7004f0478000080fa000000060075
:103754000400fa00881f7800008fbe002108800052
:10376400f0fc2f0000806000200888001e01780013
:103774009e019000001c2e0041c6240029f507007c
:1037840018c0b30002f02f00f3772400e2f307001f
:103794000000e00001003c000044eb000804e000ed
:1037a4005400320021088000f0fc2f0000806000eb
:1037b4000040a000200888001e0178009e019000af
:1037c400001c2e0041c6240016f50700020020004c
:1037d4000310240013f5070018c0b30002f02f00f3
:1037e400f3772400ccf307000000e00001003c0064
:1037f4000044eb000804e00032003200210880009d
:10380400f0fc2f00008060000050a0002008880019
:103814001e0178009e019000001c2e0041c6240069
:1038240000f507000200200003282400fdf407002f
:1038340018c0b30002f02f00f3772400b6f307009a
:103844000000e00001003c000044eb000804e0003c
:1038540010003200210880000003200001007000e5
:10386400200888001e0178009e019000001c2e0094
:1038740041c62400ebf407000200200003382400b2
:10388400e8f40700a6f30700000078001008880099
:10389400200037001e0178009e019000001c2e00bd
:1038a40041c62400dff4070002002000032824009e
:1038b400dcf407009af30700000078001008880081
:1038c400140037001e0178009e019000001c2e0099
:1038d40041c62400d3f40700020020000310240092
:1038e400d0f407008ef30700000078001008880069
:1038f400080037001e0178009e019000001c2e0075
:1039040041c62400c7f4070085f3070000007800cf
:10391400100888004f0478000080fa0000000600b8
:103924000000fa0005e1a9000421a900000020001c
:103934006129240086ff07000068a9002068a80008
:1039440005e1a8000080fa00000006000000fa006b
:1039540013e1a90011e1a9001061a8001021a90038
:1039640081088000000320000100700080088800a6
:103974000a21ef000621ef00700020007008880083
:10398400e0702200600888002142800080ff2f0040
:10399400008060000000a000204288000108a90007
:1039a4002108a80011e1a8000080fa000000060028
:1039b4000400fa00881f7800008fbe00f108800020
:1039c400f0fc2f0000806000f00888001e017800e1
:1039d4009e019000001c2e0041c6240091f40700b3
:1039e40018c0b30002f02f00f37724004af3070055
:1039f4000000e00001003c000044eb000804e0008b
:103a040054003200f1088000f0fc2f0000806000b8
:103a14000040a000f00888001e0178009e0190007c
:103a2400001c2e0041c624007ef407000200200082
:103a3400031024007bf4070018c0b30002f02f0029
:103a4400f377240034f307000000e00001003c0099
:103a54000044eb000804e00032003200f10880006a
:103a6400f0fc2f00008060000050a000f0088800e7
:103a74001e0178009e019000001c2e0041c6240007
:103a840068f40700020020000328240065f40700fe
:103a940018c0b30002f02f00f37724001ef30700d0
:103aa4000000e00001003c000044eb000804e000da
:103ab40010003200f10880000003200001007000b3
:103ac400f00888001e0178009e019000001c2e0062
:103ad40041c6240053f407000200200003382400e8
:103ae40050f407000ef3070000007800d0088800a7
:103af400200037001e0178009e019000001c2e005b
:103b040041c6240047f407000200200003282400d3
:103b140044f4070002f3070000007800d00888008e
:103b2400140037001e0178009e019000001c2e0036
:103b340041c624003bf407000200200003102400c7
:103b440038f40700f6f2070000007800d008880077
:103b5400080037001e0178009e019000001c2e0012
:103b640041c624002ff40700edf20700000078009e
:103b7400d00888004f0478000080fa000000060096
:103b84000000fa001fe1a9001e21a9000000200086
:103b9400a147240086ff07000368a9002368a80042
:103ba4001fe1a8000080fa00000006000000fa00ef
:103bb400889fbe00c4808000d5808000a0808000e3
:103bc400b180800018c0b3000001be000400be0034
:103bd400cff207000000e000010035000044eb00d4
:103be4000804e0000d003200a8808000b980800045
:103bf400c4808000d58080001080800021808000f7
:103c04000001be000400be0021f307000801be004d
:103c1400dd000700c0808800d1808800c480800057
:103c2400d5808000a0808000b180800018c0b300df
:103c34000001be000400be00b7f207000000e0006f
:103c440001003c000044eb000804e0000d003200d9
:103c5400a8808000b9808000c4808000d580800066
:103c640010808000218080000001be000400be009e
:103c7400fef207000801be00ab000700c080880008
:103c8400d1808800c0808000d180800018c0b3003b
:103c94006011b800a0f207000000e00001003c0041
:103ca4000044eb000804e00012003200c0808000f1
:103cb400d180800002002000031c2400b8f4070017
:103cc4000004be00008080008000eb00d0f20700fa
:103cd4000001be000800be00edf20700b1f20700cb
:103ce40000007800306188000080800070618800e6
:103cf400120037000080800030618800c08080009e
:103d0400d180800001f0a20002002000031c2400e6
:103d1400a3f407000004be00008080008000eb00d4
:103d2400bbf207000001be000800be00d8f2070085
:103d34009cf2070000007800706188000481800014
:103d440015818000e0808000f180800018c0b300fd
:103d54000001be000400be006df207000000e00098
:103d6400010035000044eb000804e0000d003200bf
:103d7400e8808000f9808000048180001581800043
:103d840010808000218080000001be000400be007d
:103d9400bff207000801be007b0007000081880015
:103da400118188000481800015818000e0808000fa
:103db400f180800018c0b3000001be000400be0002
:103dc40055f207000000e00001003c000044eb0055
:103dd4000804e0000d003200e8808000f9808000d3
:103de4000481800015818000108080002180800083
:103df4000001be000400be009cf207000801be00e2
:103e0400490007000081880011818800008180003a
:103e14001181800018c0b3006011b8003ef20700a1
:103e24000000e00001003d000044eb000804e00055
:103e34001200320000818000118180000200200005
:103e4400031c240056f407000004be000080800018
:103e54008000eb006ef207000001be000800be0007
:103e64008bf207004ff207000000780030628800f0
:103e7400008080007062880012003700008080009b
:103e840030628800008180001181800001f0a2006e
:103e940002002000031c240041f407000004be00bb
:103ea400008080008000eb0059f207000001be0092
:103eb4000800be0076f207003af20700000078001e
:103ec400706288004f04be000080fa000000060003
:103ed4000400fa00881f7800008fbe0018c0b300e9
:103ee4006011b8001e0078009e0090000af20700de
:103ef4000000e00001003d000044eb000804e00085
:103f0400030032001e0078009e009000030037007a
:103f14001e0078009e00900001f0a2004f0478007b
:103f24000080fa00000006000800fa00881f7800ec
:103f3400008fbe00220798003307980018c0b30012
:103f44002e019000be0190001e0078009e0090009b
:103f5400f1f107000000e00001003c000044eb0028
:103f64000804e000030032001e0078009e00900068
:103f7400020037002e009000be0090004f0478002d
:103f84000080fa00000006000800fa00881f78008c
:103f9400008fbe00220798003307980018c0b300b2
:103fa4002e019000be0190001e0078009e0090003b
:103fb400d7f107000000e000010035000044eb00e9
:103fc4000804e000030032001e0078009e00900008
:103fd400020037002e009000be0090004f047800cd
:103fe4000080fa00000006000c00fa00881f780028
:103ff400008fbe00220798003307980044079800fa
:104004005507980018c0b3004e019000de019000df
:104014001e0078009e009000bff107000000e00041
:1040240001003c000044eb000804e00004003200fe
:104034004e019000de019000028fbe000e0037009a
:1040440018c0b3002e019000be0190001e0078003d
:104054009e009000aef107000000e0000100350072
:104064000044eb000804e000030032002e0190003d
:10407400be019000028fbe001e0078009e009000da
:104084004f0478000080fa00000006000400fa00e3
:10409400008fbe00b2fd2000930424001e007800af
:1040a4009e009000dff2070002002000433324004a
:1040b400bbf307000080fa00000006000400fa00c9
:1040c400008fbe00b2fd2000930424001e0078007f
:1040d4009e009000b2f30700020020004333240046
:1040e400d0f207000080fa00000006000000fa0089
:1040f400413a800000fc2f00008060007001b30092
:10410400403a8800313a800000e02f00808060004f
:104114008005200001007000303a8800213a8000b8
:10412400f0f32f0000806000203a8800213a8000dc
:1041340000fe2f00008060000000a000203a8800ec
:104144001200200080072000a10920003374200001
:10415400804978008149780082497800103a8000cb
:10416400000178000200a000600420007105200016
:1041740023742000804978008149780082497800be
:1041840000000000113a80000000270080806000d9
:1041940000002100808f5000faff3a005927a80040
:1041a400c13a800080ff2f00008060000000a00062
:1041b400c03a8800d03a80007000b300d03a88003a
:1041c400c13a8000f0f12f0080806000000c2000d4
:1041d40001007000c03a880059a7a80059e7a80058
:1041e40000000000c13a800000002400008060004c
:1041f4000000e000fbff320000000000113a8000e4
:1042040000022000008060000000e000fbff32009c
:104214000080fa00000006000000fa0021e3a90073
:104224002143a80001198000f0cf2f000080600016
:10423400001988002043a90001198000000e200005
:10424400010070000019880011198000f0ff21009e
:1042540000806000101988002343a8001119800011
:10426400f0cf2f0000806000101988001119800021
:1042740030f82f00008060000040a0001019880072
:104284002203a9002223a90025e3a900f0c0b3005a
:1042940024e3b70021198000f00f2e008080600015
:1042a40000f0200001007000201988003303a900e9
:1042b4001e0ea8001f0ea8001f2ea8001f4ea80047
:1042c4001f6ea8003003a8003103a8003123a80002
:1042d4003143a8003163a8004119800000fe2f007b
:1042e400008060004019880028e3a90001a8a90003
:1042f40021a8a80021e3a8000080fa00000006001d
:104304000000fa002023a8000080fa000000060044
:104314000000fa00800321000080fa00000006007b
:104324000000fa000dd0bf000080fa000000060073
:104334000000fa000d70ef000080fa000000060093
:104344000000fa001160800080ff2f0000806000f0
:1043540010608800009620002060880011618000b1
:1043640000c02000010070001061880023cca80068
:1043740023eca80030002000206188001162800036
:1043840000c02000010070001062880043cca80027
:1043940043eca800300020002062880001eca80053
:1043a4000080fa00000006000600fa00008fbe003c
:1043b400424798004e409000e14f500004003a00fc
:1043c4001e0178009e019000a2808800b3808800be
:1043d4004e4090000004e00005003a001e00780002
:1043e4009e00900001f0a200e0808800f180880027
:1043f4000080fa00000006000000fa000e2eef0014
:104404001e2eef003e2eef002e2eef004e2eef005c
:104414006e2eef0080cea90080aea900808ea90088
:10442400816ea900714ea90091eea900000ea900a9
:10443400012ea900014ea900706ea9000c0007000e
:10444400020007000080fa00000006000000fa00e5
:104454002174200062042000730520008248780043
:104464008348780042c7a8000080fa0000000600d4
:104474000000fa002174200062042000730520006b
:10448400824878008348780042c7a9000080fa0077
:04449400000006001e
:020000040000fa
:10449800381000000a000000800000000c10000026
:1044a800020000008000000012100000260000003a
:1044b80080000000001000000600000082000000dc
:1044c8003200000000204100061000000600000035
:1044d800800000000e1000000200000080000000b4
:1044e8001010000002000000800000000000000022
:020000040000fa
:0200000401f009
:04000800cfffff0027
:020000040000fa
:0200000401f009
:04000c00f9ffff00f9
:020000040000fa
:0200000401f009
:040010005bffff0093
:020000040000fa
:0200000401f009
:040014007fffff006b
:020000040000fa
:0200000401f009
:04001800cfffff0017
:020000040000fa
:0200000401f009
:04001c00deffff0004
:020000040000fa
:0200000401f009
:04002000cfffff000f
:00000001FF
